{
  "contractName": "Roulette",
  "abi": [
    {
      "constant": true,
      "inputs": [
        {
          "name": "",
          "type": "uint256"
        }
      ],
      "name": "userNames",
      "outputs": [
        {
          "name": "",
          "type": "string"
        }
      ],
      "payable": false,
      "stateMutability": "view",
      "type": "function",
      "signature": "0x4ebd3aea"
    },
    {
      "constant": true,
      "inputs": [],
      "name": "deployTime",
      "outputs": [
        {
          "name": "",
          "type": "uint256"
        }
      ],
      "payable": false,
      "stateMutability": "view",
      "type": "function",
      "signature": "0x7a40624b"
    },
    {
      "constant": true,
      "inputs": [],
      "name": "ownerAddr",
      "outputs": [
        {
          "name": "",
          "type": "address"
        }
      ],
      "payable": false,
      "stateMutability": "view",
      "type": "function",
      "signature": "0x9c675eaa"
    },
    {
      "constant": true,
      "inputs": [
        {
          "name": "",
          "type": "address"
        }
      ],
      "name": "makeRandomNumberTimes",
      "outputs": [
        {
          "name": "",
          "type": "uint256"
        }
      ],
      "payable": false,
      "stateMutability": "view",
      "type": "function",
      "signature": "0xbf6cb85a"
    },
    {
      "constant": true,
      "inputs": [],
      "name": "winner",
      "outputs": [
        {
          "name": "",
          "type": "uint256"
        }
      ],
      "payable": false,
      "stateMutability": "view",
      "type": "function",
      "signature": "0xdfbf53ae"
    },
    {
      "constant": false,
      "inputs": [
        {
          "name": "_newOwner",
          "type": "address"
        }
      ],
      "name": "transferOwnership",
      "outputs": [],
      "payable": false,
      "stateMutability": "nonpayable",
      "type": "function",
      "signature": "0xf2fde38b"
    },
    {
      "inputs": [],
      "payable": false,
      "stateMutability": "nonpayable",
      "type": "constructor",
      "signature": "constructor"
    },
    {
      "constant": false,
      "inputs": [
        {
          "name": "_userNames",
          "type": "string"
        }
      ],
      "name": "setUserName",
      "outputs": [],
      "payable": false,
      "stateMutability": "nonpayable",
      "type": "function",
      "signature": "0x2b5914fe"
    },
    {
      "constant": false,
      "inputs": [],
      "name": "generateRandomNumber",
      "outputs": [
        {
          "name": "",
          "type": "uint256"
        }
      ],
      "payable": false,
      "stateMutability": "nonpayable",
      "type": "function",
      "signature": "0x773a1154"
    },
    {
      "constant": true,
      "inputs": [],
      "name": "viewResult",
      "outputs": [
        {
          "name": "",
          "type": "string"
        }
      ],
      "payable": false,
      "stateMutability": "view",
      "type": "function",
      "signature": "0x3cff0380"
    },
    {
      "constant": true,
      "inputs": [],
      "name": "viewUsers",
      "outputs": [
        {
          "name": "",
          "type": "uint256"
        }
      ],
      "payable": false,
      "stateMutability": "view",
      "type": "function",
      "signature": "0x14ebdb79"
    }
  ],
  "bytecode": "0x6080604052600060015534801561001557600080fd5b50336000806101000a81548173ffffffffffffffffffffffffffffffffffffffff021916908373ffffffffffffffffffffffffffffffffffffffff160217905550336000806101000a81548173ffffffffffffffffffffffffffffffffffffffff021916908373ffffffffffffffffffffffffffffffffffffffff16021790555060018060008282540192505081905550610b2a806100b56000396000f3fe6080604052600436106100a4576000357c0100000000000000000000000000000000000000000000000000000000900463ffffffff16806314ebdb79146100a95780632b5914fe146100d45780633cff0380146100fd5780634ebd3aea14610128578063773a1154146101655780637a40624b146101905780639c675eaa146101bb578063bf6cb85a146101e6578063dfbf53ae14610223578063f2fde38b1461024e575b600080fd5b3480156100b557600080fd5b506100be610277565b6040516100cb91906109bb565b60405180910390f35b3480156100e057600080fd5b506100fb60048036036100f69190810190610811565b610284565b005b34801561010957600080fd5b506101126102c6565b60405161011f9190610979565b60405180910390f35b34801561013457600080fd5b5061014f600480360361014a9190810190610852565b610381565b60405161015c9190610957565b60405180910390f35b34801561017157600080fd5b5061017a61043c565b60405161018791906109bb565b60405180910390f35b34801561019c57600080fd5b506101a5610547565b6040516101b291906109bb565b60405180910390f35b3480156101c757600080fd5b506101d061054d565b6040516101dd919061093c565b60405180910390f35b3480156101f257600080fd5b5061020d600480360361020891908101906107e8565b610572565b60405161021a91906109bb565b60405180910390f35b34801561022f57600080fd5b5061023861058a565b60405161024591906109bb565b60405180910390f35b34801561025a57600080fd5b50610275600480360361027091908101906107e8565b610590565b005b6000600280549050905090565b60028190806001815401808255809150509060018203906000526020600020016000909192909190915090805190602001906102c19291906106c5565b505050565b606060026003548154811015156102d957fe5b906000526020600020018054600181600116156101000203166002900480601f0160208091040260200160405190810160405280929190818152602001828054600181600116156101000203166002900480156103775780601f1061034c57610100808354040283529160200191610377565b820191906000526020600020905b81548152906001019060200180831161035a57829003601f168201915b5050505050905090565b60028181548110151561039057fe5b906000526020600020016000915090508054600181600116156101000203166002900480601f0160208091040260200160405190810160405280929190818152602001828054600181600116156101000203166002900480156104345780601f1061040957610100808354040283529160200191610434565b820191906000526020600020905b81548152906001019060200180831161041757829003601f168201915b505050505081565b600080600460003373ffffffffffffffffffffffffffffffffffffffff1673ffffffffffffffffffffffffffffffffffffffff168152602001908152602001600020541415156104c1576040517f08c379a00000000000000000000000000000000000000000000000000000000081526004016104b89061099b565b60405180910390fd5b600460003373ffffffffffffffffffffffffffffffffffffffff1673ffffffffffffffffffffffffffffffffffffffff1681526020019081526020016000206000815480929190600101919050555060006002805490509050600060014303409050600060018301826001900481151561053757fe5b0690508060038190555050505090565b60015481565b6000809054906101000a900473ffffffffffffffffffffffffffffffffffffffff1681565b60046020528060005260406000206000915090505481565b60035481565b6000809054906101000a900473ffffffffffffffffffffffffffffffffffffffff1673ffffffffffffffffffffffffffffffffffffffff163373ffffffffffffffffffffffffffffffffffffffff161415156105eb57600080fd5b6000809054906101000a900473ffffffffffffffffffffffffffffffffffffffff1673ffffffffffffffffffffffffffffffffffffffff163373ffffffffffffffffffffffffffffffffffffffff1614151561064657600080fd5b600073ffffffffffffffffffffffffffffffffffffffff168173ffffffffffffffffffffffffffffffffffffffff161415151561068257600080fd5b806000806101000a81548173ffffffffffffffffffffffffffffffffffffffff021916908373ffffffffffffffffffffffffffffffffffffffff16021790555050565b828054600181600116156101000203166002900490600052602060002090601f016020900481019282601f1061070657805160ff1916838001178555610734565b82800160010185558215610734579182015b82811115610733578251825591602001919060010190610718565b5b5090506107419190610745565b5090565b61076791905b8082111561076357600081600090555060010161074b565b5090565b90565b60006107768235610a81565b905092915050565b600082601f830112151561079157600080fd5b81356107a461079f82610a03565b6109d6565b915080825260208301602083018583830111156107c057600080fd5b6107cb838284610a9d565b50505092915050565b60006107e08235610a93565b905092915050565b6000602082840312156107fa57600080fd5b60006108088482850161076a565b91505092915050565b60006020828403121561082357600080fd5b600082013567ffffffffffffffff81111561083d57600080fd5b6108498482850161077e565b91505092915050565b60006020828403121561086457600080fd5b6000610872848285016107d4565b91505092915050565b61088481610a45565b82525050565b600061089582610a3a565b8084526108a9816020860160208601610aac565b6108b281610adf565b602085010191505092915050565b60006108cb82610a2f565b8084526108df816020860160208601610aac565b6108e881610adf565b602085010191505092915050565b6000601e82527f796f7520616c7265616479206d616b652072616e646f6d206e756d62657200006020830152604082019050919050565b61093681610a77565b82525050565b6000602082019050610951600083018461087b565b92915050565b6000602082019050818103600083015261097181846108c0565b905092915050565b60006020820190508181036000830152610993818461088a565b905092915050565b600060208201905081810360008301526109b4816108f6565b9050919050565b60006020820190506109d0600083018461092d565b92915050565b6000604051905081810181811067ffffffffffffffff821117156109f957600080fd5b8060405250919050565b600067ffffffffffffffff821115610a1a57600080fd5b601f19601f8301169050602081019050919050565b600081519050919050565b600081519050919050565b6000610a5082610a57565b9050919050565b600073ffffffffffffffffffffffffffffffffffffffff82169050919050565b6000819050919050565b6000610a8c82610a57565b9050919050565b6000819050919050565b82818337600083830152505050565b60005b83811015610aca578082015181840152602081019050610aaf565b83811115610ad9576000848401525b50505050565b6000601f19601f830116905091905056fea265627a7a723058205db6a8424c337929fd058020a11d6fe92c839a98ae85e53c00ef9729e262d7fa6c6578706572696d656e74616cf50037",
  "source": "pragma solidity >0.4.99 <0.6.0;\npragma experimental ABIEncoderV2;\nimport \"./Owned.sol\";\n\ncontract Roulette is Owned{\n\n    // owner can deploy contract at once;\n    uint public deployTime = 0;\n\n    constructor() public{\n        ownerAddr = msg.sender;\n        deployTime += 1;\n    }\n\n    modifier onlyOnce{\n        require(deployTime == 0);\n        _;\n    }\n\n    // candidates\n    string[] public userNames;\n\n    // roulette winner\n    uint public winner;\n\n    // userAddress => make Randome Number Times\n    // user can make random number only once\n    mapping(address => uint ) public makeRandomNumberTimes;\n\n    // set candidate\n    //TODO:onlyOwnerを消すこと\n    function setUserName(string memory _userNames) public {\n        userNames.push(_userNames);\n    }\n\n    // NOTE : this function uses blockhash and it is NOT secure !\n    function generateRandomNumber() public returns(uint){\n        //TODO:テストのためにrequireをコメントアウトしているので戻す事\n        require(makeRandomNumberTimes[msg.sender] == 0,\"you already make random number\");\n        makeRandomNumberTimes[msg.sender]++;\n\n        uint userNumber = userNames.length;\n        bytes32 blockhash = blockhash(block.number - 1);\n        uint myWinner = uint(blockhash) % (userNumber+1);\n        //TODO:配列のあたいの値の入ってない部分がwinnerになるとエラーになる\n        winner = myWinner;\n    }\n\n    // return wineer name\n    function viewResult() public view returns(string memory){\n        return userNames[winner];\n    }\n\n    function viewUsers() public view returns(uint){\n        return userNames.length;\n    }\n}",
  "sourcePath": "/Users/andy/roulette-ethereum/contracts/Roulette.sol",
  "compiler": {
    "name": "solc",
    "version": "0.5.0+commit.1d4f565a.Emscripten.clang"
  },
  "schemaVersion": "3.0.0",
  "updatedAt": "2019-01-15T12:47:22.557Z",
  "devdoc": {
    "methods": {}
  },
  "userdoc": {
    "methods": {}
  }
}