{
  "contractName": "Roulette",
  "abi": [
    {
      "constant": true,
      "inputs": [
        {
          "name": "",
          "type": "uint256"
        }
      ],
      "name": "userNames",
      "outputs": [
        {
          "name": "",
          "type": "string"
        }
      ],
      "payable": false,
      "stateMutability": "view",
      "type": "function",
      "signature": "0x4ebd3aea"
    },
    {
      "constant": true,
      "inputs": [],
      "name": "deployTime",
      "outputs": [
        {
          "name": "",
          "type": "uint256"
        }
      ],
      "payable": false,
      "stateMutability": "view",
      "type": "function",
      "signature": "0x7a40624b"
    },
    {
      "constant": true,
      "inputs": [],
      "name": "ownerAddr",
      "outputs": [
        {
          "name": "",
          "type": "address"
        }
      ],
      "payable": false,
      "stateMutability": "view",
      "type": "function",
      "signature": "0x9c675eaa"
    },
    {
      "constant": true,
      "inputs": [
        {
          "name": "",
          "type": "address"
        }
      ],
      "name": "makeRandomNumberTimes",
      "outputs": [
        {
          "name": "",
          "type": "uint256"
        }
      ],
      "payable": false,
      "stateMutability": "view",
      "type": "function",
      "signature": "0xbf6cb85a"
    },
    {
      "constant": true,
      "inputs": [],
      "name": "winner",
      "outputs": [
        {
          "name": "",
          "type": "uint256"
        }
      ],
      "payable": false,
      "stateMutability": "view",
      "type": "function",
      "signature": "0xdfbf53ae"
    },
    {
      "constant": false,
      "inputs": [
        {
          "name": "_newOwner",
          "type": "address"
        }
      ],
      "name": "transferOwnership",
      "outputs": [],
      "payable": false,
      "stateMutability": "nonpayable",
      "type": "function",
      "signature": "0xf2fde38b"
    },
    {
      "inputs": [],
      "payable": false,
      "stateMutability": "nonpayable",
      "type": "constructor",
      "signature": "constructor"
    },
    {
      "constant": false,
      "inputs": [
        {
          "name": "_userNames",
          "type": "string"
        }
      ],
      "name": "setUserName",
      "outputs": [],
      "payable": false,
      "stateMutability": "nonpayable",
      "type": "function",
      "signature": "0x2b5914fe"
    },
    {
      "constant": false,
      "inputs": [],
      "name": "generateRandomNumber",
      "outputs": [
        {
          "name": "",
          "type": "uint256"
        }
      ],
      "payable": false,
      "stateMutability": "nonpayable",
      "type": "function",
      "signature": "0x773a1154"
    },
    {
      "constant": true,
      "inputs": [],
      "name": "viewResult",
      "outputs": [
        {
          "name": "",
          "type": "string"
        }
      ],
      "payable": false,
      "stateMutability": "view",
      "type": "function",
      "signature": "0x3cff0380"
    },
    {
      "constant": true,
      "inputs": [],
      "name": "viewUsers",
      "outputs": [
        {
          "name": "",
          "type": "uint256"
        }
      ],
      "payable": false,
      "stateMutability": "view",
      "type": "function",
      "signature": "0x14ebdb79"
    }
  ],
  "bytecode": "0x6080604052600060015534801561001557600080fd5b50336000806101000a81548173ffffffffffffffffffffffffffffffffffffffff021916908373ffffffffffffffffffffffffffffffffffffffff160217905550336000806101000a81548173ffffffffffffffffffffffffffffffffffffffff021916908373ffffffffffffffffffffffffffffffffffffffff16021790555060018060008282540192505081905550610a50806100b56000396000f3fe6080604052600436106100a4576000357c0100000000000000000000000000000000000000000000000000000000900463ffffffff16806314ebdb79146100a95780632b5914fe146100d45780633cff0380146100fd5780634ebd3aea14610128578063773a1154146101655780637a40624b146101905780639c675eaa146101bb578063bf6cb85a146101e6578063dfbf53ae14610223578063f2fde38b1461024e575b600080fd5b3480156100b557600080fd5b506100be610277565b6040516100cb91906108e1565b60405180910390f35b3480156100e057600080fd5b506100fb60048036036100f6919081019061078e565b610284565b005b34801561010957600080fd5b506101126102c6565b60405161011f91906108bf565b60405180910390f35b34801561013457600080fd5b5061014f600480360361014a91908101906107cf565b610381565b60405161015c919061089d565b60405180910390f35b34801561017157600080fd5b5061017a61043c565b60405161018791906108e1565b60405180910390f35b34801561019c57600080fd5b506101a56104c4565b6040516101b291906108e1565b60405180910390f35b3480156101c757600080fd5b506101d06104ca565b6040516101dd9190610882565b60405180910390f35b3480156101f257600080fd5b5061020d60048036036102089190810190610765565b6104ef565b60405161021a91906108e1565b60405180910390f35b34801561022f57600080fd5b50610238610507565b60405161024591906108e1565b60405180910390f35b34801561025a57600080fd5b5061027560048036036102709190810190610765565b61050d565b005b6000600280549050905090565b60028190806001815401808255809150509060018203906000526020600020016000909192909190915090805190602001906102c1929190610642565b505050565b606060026003548154811015156102d957fe5b906000526020600020018054600181600116156101000203166002900480601f0160208091040260200160405190810160405280929190818152602001828054600181600116156101000203166002900480156103775780601f1061034c57610100808354040283529160200191610377565b820191906000526020600020905b81548152906001019060200180831161035a57829003601f168201915b5050505050905090565b60028181548110151561039057fe5b906000526020600020016000915090508054600181600116156101000203166002900480601f0160208091040260200160405190810160405280929190818152602001828054600181600116156101000203166002900480156104345780601f1061040957610100808354040283529160200191610434565b820191906000526020600020905b81548152906001019060200180831161041757829003601f168201915b505050505081565b6000600460003373ffffffffffffffffffffffffffffffffffffffff1673ffffffffffffffffffffffffffffffffffffffff168152602001908152602001600020600081548092919060010191905055506000600280549050905060006001430340905060006001830182600190048115156104b457fe5b0690508060038190555050505090565b60015481565b6000809054906101000a900473ffffffffffffffffffffffffffffffffffffffff1681565b60046020528060005260406000206000915090505481565b60035481565b6000809054906101000a900473ffffffffffffffffffffffffffffffffffffffff1673ffffffffffffffffffffffffffffffffffffffff163373ffffffffffffffffffffffffffffffffffffffff1614151561056857600080fd5b6000809054906101000a900473ffffffffffffffffffffffffffffffffffffffff1673ffffffffffffffffffffffffffffffffffffffff163373ffffffffffffffffffffffffffffffffffffffff161415156105c357600080fd5b600073ffffffffffffffffffffffffffffffffffffffff168173ffffffffffffffffffffffffffffffffffffffff16141515156105ff57600080fd5b806000806101000a81548173ffffffffffffffffffffffffffffffffffffffff021916908373ffffffffffffffffffffffffffffffffffffffff16021790555050565b828054600181600116156101000203166002900490600052602060002090601f016020900481019282601f1061068357805160ff19168380011785556106b1565b828001600101855582156106b1579182015b828111156106b0578251825591602001919060010190610695565b5b5090506106be91906106c2565b5090565b6106e491905b808211156106e05760008160009055506001016106c8565b5090565b90565b60006106f382356109a7565b905092915050565b600082601f830112151561070e57600080fd5b813561072161071c82610929565b6108fc565b9150808252602083016020830185838301111561073d57600080fd5b6107488382846109c3565b50505092915050565b600061075d82356109b9565b905092915050565b60006020828403121561077757600080fd5b6000610785848285016106e7565b91505092915050565b6000602082840312156107a057600080fd5b600082013567ffffffffffffffff8111156107ba57600080fd5b6107c6848285016106fb565b91505092915050565b6000602082840312156107e157600080fd5b60006107ef84828501610751565b91505092915050565b6108018161096b565b82525050565b600061081282610960565b8084526108268160208601602086016109d2565b61082f81610a05565b602085010191505092915050565b600061084882610955565b80845261085c8160208601602086016109d2565b61086581610a05565b602085010191505092915050565b61087c8161099d565b82525050565b600060208201905061089760008301846107f8565b92915050565b600060208201905081810360008301526108b7818461083d565b905092915050565b600060208201905081810360008301526108d98184610807565b905092915050565b60006020820190506108f66000830184610873565b92915050565b6000604051905081810181811067ffffffffffffffff8211171561091f57600080fd5b8060405250919050565b600067ffffffffffffffff82111561094057600080fd5b601f19601f8301169050602081019050919050565b600081519050919050565b600081519050919050565b60006109768261097d565b9050919050565b600073ffffffffffffffffffffffffffffffffffffffff82169050919050565b6000819050919050565b60006109b28261097d565b9050919050565b6000819050919050565b82818337600083830152505050565b60005b838110156109f05780820151818401526020810190506109d5565b838111156109ff576000848401525b50505050565b6000601f19601f830116905091905056fea265627a7a72305820ce52eabfad055904206c395484a3ca873e5a9cb1db9d8ac7ca314bb340c7450d6c6578706572696d656e74616cf50037",
  "source": "pragma solidity >0.4.99 <0.6.0;\npragma experimental ABIEncoderV2;\nimport \"./Owned.sol\";\n\ncontract Roulette is Owned{\n\n    // owner can deploy contract at once;\n    uint public deployTime = 0;\n\n    constructor() public{\n        ownerAddr = msg.sender;\n        deployTime += 1;\n    }\n\n    modifier onlyOnce{\n        require(deployTime == 0);\n        _;\n    }\n\n    // candidates\n    string[] public userNames;\n\n    // roulette winner\n    uint public winner;\n\n    // userAddress => make Randome Number Times\n    // user can make random number only once\n    mapping(address => uint ) public makeRandomNumberTimes;\n\n    // set candidate\n    //TODO:onlyOwnerを消すこと\n    function setUserName(string memory _userNames) public {\n        userNames.push(_userNames);\n    }\n\n    // NOTE : this function uses blockhash and it is NOT secure !\n    function generateRandomNumber() public returns(uint){\n        //TODO:テストのためにrequireをコメントアウト\n        // require(makeRandomNumberTimes[msg.sender] == 0,\"you already make random number\");\n        makeRandomNumberTimes[msg.sender]++;\n\n        uint userNumber = userNames.length;\n        bytes32 blockhash = blockhash(block.number - 1);\n        uint myWinner = uint(blockhash) % (userNumber+1);\n        //TODO:配列のあたいの値の入ってない部分がwinnerになるとエラーになる\n        winner = myWinner;\n    }\n\n    // return wineer name\n    function viewResult() public view returns(string memory){\n        return userNames[winner];\n    }\n\n    function viewUsers() public view returns(uint){\n        return userNames.length;\n    }\n}",
  "sourcePath": "/Users/andy/roulette-ethereum/contracts/Roulette.sol",
  "compiler": {
    "name": "solc",
    "version": "0.5.0+commit.1d4f565a.Emscripten.clang"
  },
  "schemaVersion": "3.0.0",
  "updatedAt": "2018-12-29T12:48:32.879Z",
  "devdoc": {
    "methods": {}
  },
  "userdoc": {
    "methods": {}
  }
}