{
  "contractName": "Roulette",
  "abi": [
    {
      "constant": true,
      "inputs": [
        {
          "name": "",
          "type": "uint256"
        }
      ],
      "name": "userNames",
      "outputs": [
        {
          "name": "",
          "type": "string"
        }
      ],
      "payable": false,
      "stateMutability": "view",
      "type": "function"
    },
    {
      "constant": true,
      "inputs": [],
      "name": "deployTime",
      "outputs": [
        {
          "name": "",
          "type": "uint256"
        }
      ],
      "payable": false,
      "stateMutability": "view",
      "type": "function"
    },
    {
      "constant": true,
      "inputs": [],
      "name": "ownerAddr",
      "outputs": [
        {
          "name": "",
          "type": "address"
        }
      ],
      "payable": false,
      "stateMutability": "view",
      "type": "function"
    },
    {
      "constant": true,
      "inputs": [
        {
          "name": "",
          "type": "address"
        }
      ],
      "name": "makeRandomNumberTimes",
      "outputs": [
        {
          "name": "",
          "type": "uint256"
        }
      ],
      "payable": false,
      "stateMutability": "view",
      "type": "function"
    },
    {
      "constant": true,
      "inputs": [],
      "name": "winner",
      "outputs": [
        {
          "name": "",
          "type": "uint256"
        }
      ],
      "payable": false,
      "stateMutability": "view",
      "type": "function"
    },
    {
      "constant": false,
      "inputs": [
        {
          "name": "_newOwner",
          "type": "address"
        }
      ],
      "name": "transferOwnership",
      "outputs": [],
      "payable": false,
      "stateMutability": "nonpayable",
      "type": "function"
    },
    {
      "inputs": [],
      "payable": false,
      "stateMutability": "nonpayable",
      "type": "constructor"
    },
    {
      "constant": false,
      "inputs": [
        {
          "name": "_userNames",
          "type": "string"
        }
      ],
      "name": "setUserName",
      "outputs": [],
      "payable": false,
      "stateMutability": "nonpayable",
      "type": "function"
    },
    {
      "constant": false,
      "inputs": [],
      "name": "generateRandomNumber",
      "outputs": [],
      "payable": false,
      "stateMutability": "nonpayable",
      "type": "function"
    },
    {
      "constant": true,
      "inputs": [],
      "name": "viewResult",
      "outputs": [
        {
          "name": "",
          "type": "string"
        }
      ],
      "payable": false,
      "stateMutability": "view",
      "type": "function"
    }
  ],
  "bytecode": "0x6080604052600060015534801561001557600080fd5b50336000806101000a81548173ffffffffffffffffffffffffffffffffffffffff021916908373ffffffffffffffffffffffffffffffffffffffff160217905550336000806101000a81548173ffffffffffffffffffffffffffffffffffffffff021916908373ffffffffffffffffffffffffffffffffffffffff16021790555060018060008282540192505081905550610a52806100b56000396000f300608060405260043610610099576000357c0100000000000000000000000000000000000000000000000000000000900463ffffffff1680632b5914fe1461009e5780633cff0380146100c75780634ebd3aea146100f2578063773a11541461012f5780637a40624b146101465780639c675eaa14610171578063bf6cb85a1461019c578063dfbf53ae146101d9578063f2fde38b14610204575b600080fd5b3480156100aa57600080fd5b506100c560048036036100c09190810190610794565b61022d565b005b3480156100d357600080fd5b506100dc6102ca565b6040516100e991906108c5565b60405180910390f35b3480156100fe57600080fd5b50610119600480360361011491908101906107d5565b610385565b60405161012691906108a3565b60405180910390f35b34801561013b57600080fd5b50610144610440565b005b34801561015257600080fd5b5061015b6104ca565b60405161016891906108e7565b60405180910390f35b34801561017d57600080fd5b506101866104d0565b6040516101939190610888565b60405180910390f35b3480156101a857600080fd5b506101c360048036036101be919081019061076b565b6104f5565b6040516101d091906108e7565b60405180910390f35b3480156101e557600080fd5b506101ee61050d565b6040516101fb91906108e7565b60405180910390f35b34801561021057600080fd5b5061022b6004803603610226919081019061076b565b610513565b005b6000809054906101000a900473ffffffffffffffffffffffffffffffffffffffff1673ffffffffffffffffffffffffffffffffffffffff163373ffffffffffffffffffffffffffffffffffffffff1614151561028857600080fd5b60028190806001815401808255809150509060018203906000526020600020016000909192909190915090805190602001906102c5929190610648565b505050565b606060026003548154811015156102dd57fe5b906000526020600020018054600181600116156101000203166002900480601f01602080910402602001604051908101604052809291908181526020018280546001816001161561010002031660029004801561037b5780601f106103505761010080835404028352916020019161037b565b820191906000526020600020905b81548152906001019060200180831161035e57829003601f168201915b5050505050905090565b60028181548110151561039457fe5b906000526020600020016000915090508054600181600116156101000203166002900480601f0160208091040260200160405190810160405280929190818152602001828054600181600116156101000203166002900480156104385780601f1061040d57610100808354040283529160200191610438565b820191906000526020600020905b81548152906001019060200180831161041b57829003601f168201915b505050505081565b6000806000600460003373ffffffffffffffffffffffffffffffffffffffff1673ffffffffffffffffffffffffffffffffffffffff1681526020019081526020016000206000815480929190600101919050555060028054905092506001430340915060018301826001900463ffffffff168115156104bb57fe5b06905080600381905550505050565b60015481565b6000809054906101000a900473ffffffffffffffffffffffffffffffffffffffff1681565b60046020528060005260406000206000915090505481565b60035481565b6000809054906101000a900473ffffffffffffffffffffffffffffffffffffffff1673ffffffffffffffffffffffffffffffffffffffff163373ffffffffffffffffffffffffffffffffffffffff1614151561056e57600080fd5b6000809054906101000a900473ffffffffffffffffffffffffffffffffffffffff1673ffffffffffffffffffffffffffffffffffffffff163373ffffffffffffffffffffffffffffffffffffffff161415156105c957600080fd5b600073ffffffffffffffffffffffffffffffffffffffff168173ffffffffffffffffffffffffffffffffffffffff161415151561060557600080fd5b806000806101000a81548173ffffffffffffffffffffffffffffffffffffffff021916908373ffffffffffffffffffffffffffffffffffffffff16021790555050565b828054600181600116156101000203166002900490600052602060002090601f016020900481019282601f1061068957805160ff19168380011785556106b7565b828001600101855582156106b7579182015b828111156106b657825182559160200191906001019061069b565b5b5090506106c491906106c8565b5090565b6106ea91905b808211156106e65760008160009055506001016106ce565b5090565b90565b60006106f9823561099b565b905092915050565b600082601f830112151561071457600080fd5b81356107276107228261092f565b610902565b9150808252602083016020830185838301111561074357600080fd5b61074e8382846109c5565b50505092915050565b600061076382356109bb565b905092915050565b60006020828403121561077d57600080fd5b600061078b848285016106ed565b91505092915050565b6000602082840312156107a657600080fd5b600082013567ffffffffffffffff8111156107c057600080fd5b6107cc84828501610701565b91505092915050565b6000602082840312156107e757600080fd5b60006107f584828501610757565b91505092915050565b61080781610971565b82525050565b600061081882610966565b80845261082c8160208601602086016109d4565b61083581610a07565b602085010191505092915050565b600061084e8261095b565b8084526108628160208601602086016109d4565b61086b81610a07565b602085010191505092915050565b61088281610991565b82525050565b600060208201905061089d60008301846107fe565b92915050565b600060208201905081810360008301526108bd8184610843565b905092915050565b600060208201905081810360008301526108df818461080d565b905092915050565b60006020820190506108fc6000830184610879565b92915050565b6000604051905081810181811067ffffffffffffffff8211171561092557600080fd5b8060405250919050565b600067ffffffffffffffff82111561094657600080fd5b601f19601f8301169050602081019050919050565b600081519050919050565b600081519050919050565b600073ffffffffffffffffffffffffffffffffffffffff82169050919050565b6000819050919050565b600073ffffffffffffffffffffffffffffffffffffffff82169050919050565b6000819050919050565b82818337600083830152505050565b60005b838110156109f25780820151818401526020810190506109d7565b83811115610a01576000848401525b50505050565b6000601f19601f83011690509190505600a265627a7a72305820e3942c4fff7bce663c623cf3917ae2f538d16ccca0f1eafa76ced4728ff55c566c6578706572696d656e74616cf50037",
  "source": "pragma solidity ^0.4.19;\npragma experimental ABIEncoderV2;\nimport \"./Owned.sol\";\n\ncontract Roulette is Owned{\n\n    // owner can deploy contract at once;\n    uint public deployTime = 0;\n\n    constructor(){\n        ownerAddr = msg.sender;\n        deployTime += 1;\n    }\n\n    modifier onlyOnce{\n        require(deployTime == 0);\n        _;\n    }\n\n    // candidates\n    string[] public userNames;\n\n    // roulette winner\n    uint public winner;\n\n    // userAddress => make Randome Number Times\n    // user can make random number only once\n    mapping(address => uint ) public makeRandomNumberTimes;\n\n    // set candidate\n    //TODO:あとでonlyOwnerとonlyOnceを付け足すこと\n    function setUserName(string _userNames) public onlyOwner {\n        userNames.push(_userNames);\n    }\n\n    // NOTE : this function uses blockhash and it is NOT secure !\n    function generateRandomNumber() public{\n        // require(makeRandomNumberTimes[msg.sender] == 0,\"you already make random number\");\n        makeRandomNumberTimes[msg.sender]++;\n\n        uint userNumber = userNames.length;\n        bytes32 blockhash = block.blockhash(block.number - 1);\n        uint mywinner = uint32(blockhash) % (userNumber+1);\n        //TODO:配列のあたいの値の入ってない部分がwinnerになるとエラーになる\n        winner = mywinner ;\n    }\n\n    // return wineer name\n    function viewResult() public view returns(string){\n        return userNames[winner];\n    }\n\n}",
  "sourcePath": "/Users/andy/roulette-ethereum/contracts/Roulette.sol",
  "compiler": {
    "name": "solc",
    "version": "0.4.24+commit.e67f0147.Emscripten.clang"
  },
  "schemaVersion": "2.0.1",
  "updatedAt": "2018-12-06T06:13:54.818Z"
}